{
  "contractName": "MultiSigWalletFactory",
  "abi": [
    {
      "anonymous": false,
      "inputs": [
        {
          "indexed": false,
          "internalType": "address",
          "name": "sender",
          "type": "address"
        },
        {
          "indexed": false,
          "internalType": "address",
          "name": "wallet",
          "type": "address"
        }
      ],
      "name": "ContractInstantiation",
      "type": "event"
    },
    {
      "inputs": [
        {
          "internalType": "address",
          "name": "",
          "type": "address"
        }
      ],
      "name": "walletExists",
      "outputs": [
        {
          "internalType": "bool",
          "name": "",
          "type": "bool"
        }
      ],
      "stateMutability": "view",
      "type": "function"
    },
    {
      "inputs": [
        {
          "internalType": "address",
          "name": "",
          "type": "address"
        },
        {
          "internalType": "uint256",
          "name": "",
          "type": "uint256"
        }
      ],
      "name": "walletInstances",
      "outputs": [
        {
          "internalType": "address",
          "name": "",
          "type": "address"
        }
      ],
      "stateMutability": "view",
      "type": "function"
    },
    {
      "inputs": [
        {
          "internalType": "address[]",
          "name": "_owners",
          "type": "address[]"
        },
        {
          "internalType": "uint256",
          "name": "_confirmationsRequired",
          "type": "uint256"
        }
      ],
      "name": "createWallet",
      "outputs": [
        {
          "internalType": "address",
          "name": "wallet",
          "type": "address"
        }
      ],
      "stateMutability": "nonpayable",
      "type": "function"
    }
  ],
  "bytecode": "0x608060405234801561001057600080fd5b506124fd806100206000396000f3fe60806040523480156200001157600080fd5b5060043610620000465760003560e01c80632c03abe2146200004b5780633800a55d1462000081578063910021c714620000b7575b600080fd5b62000069600480360381019062000063919062000359565b620000ed565b604051620000789190620003a8565b60405180910390f35b6200009f600480360381019062000099919062000575565b6200010d565b604051620000ae9190620005ec565b60405180910390f35b620000d56004803603810190620000cf919062000609565b62000283565b604051620000e49190620005ec565b60405180910390f35b60016020528060005260406000206000915054906101000a900460ff1681565b600082826040516200011f90620002d2565b6200012c9291906200072f565b604051809103906000f08015801562000149573d6000803e3d6000fd5b5090506000803373ffffffffffffffffffffffffffffffffffffffff1673ffffffffffffffffffffffffffffffffffffffff168152602001908152602001600020819080600181540180825580915050600190039060005260206000200160009091909190916101000a81548173ffffffffffffffffffffffffffffffffffffffff021916908373ffffffffffffffffffffffffffffffffffffffff16021790555060018060008373ffffffffffffffffffffffffffffffffffffffff1673ffffffffffffffffffffffffffffffffffffffff16815260200190815260200160002060006101000a81548160ff0219169083151502179055507f4fb057ad4a26ed17a57957fa69c306f11987596069b89521c511fc9a894e616133826040516200027592919062000763565b60405180910390a192915050565b60006020528160005260406000208181548110620002a057600080fd5b906000526020600020016000915091509054906101000a900473ffffffffffffffffffffffffffffffffffffffff1681565b611d37806200079183390190565b6000604051905090565b600080fd5b600080fd5b600073ffffffffffffffffffffffffffffffffffffffff82169050919050565b60006200032182620002f4565b9050919050565b620003338162000314565b81146200033f57600080fd5b50565b600081359050620003538162000328565b92915050565b600060208284031215620003725762000371620002ea565b5b6000620003828482850162000342565b91505092915050565b60008115159050919050565b620003a2816200038b565b82525050565b6000602082019050620003bf600083018462000397565b92915050565b600080fd5b6000601f19601f8301169050919050565b7f4e487b7100000000000000000000000000000000000000000000000000000000600052604160045260246000fd5b6200041582620003ca565b810181811067ffffffffffffffff82111715620004375762000436620003db565b5b80604052505050565b60006200044c620002e0565b90506200045a82826200040a565b919050565b600067ffffffffffffffff8211156200047d576200047c620003db565b5b602082029050602081019050919050565b600080fd5b6000620004aa620004a4846200045f565b62000440565b90508083825260208201905060208402830185811115620004d057620004cf6200048e565b5b835b81811015620004fd5780620004e8888262000342565b845260208401935050602081019050620004d2565b5050509392505050565b600082601f8301126200051f576200051e620003c5565b5b81356200053184826020860162000493565b91505092915050565b6000819050919050565b6200054f816200053a565b81146200055b57600080fd5b50565b6000813590506200056f8162000544565b92915050565b600080604083850312156200058f576200058e620002ea565b5b600083013567ffffffffffffffff811115620005b057620005af620002ef565b5b620005be8582860162000507565b9250506020620005d1858286016200055e565b9150509250929050565b620005e68162000314565b82525050565b6000602082019050620006036000830184620005db565b92915050565b60008060408385031215620006235762000622620002ea565b5b6000620006338582860162000342565b925050602062000646858286016200055e565b9150509250929050565b600081519050919050565b600082825260208201905092915050565b6000819050602082019050919050565b620006878162000314565b82525050565b60006200069b83836200067c565b60208301905092915050565b6000602082019050919050565b6000620006c18262000650565b620006cd81856200065b565b9350620006da836200066c565b8060005b8381101562000711578151620006f588826200068d565b97506200070283620006a7565b925050600181019050620006de565b5085935050505092915050565b62000729816200053a565b82525050565b600060408201905081810360008301526200074b8185620006b4565b90506200075c60208301846200071e565b9392505050565b60006040820190506200077a6000830185620005db565b620007896020830184620005db565b939250505056fe60a06040523480156200001157600080fd5b5060405162001d3738038062001d378339818101604052810190620000379190620004ea565b60008251116200007e576040517f08c379a00000000000000000000000000000000000000000000000000000000081526004016200007590620005b1565b60405180910390fd5b81518111158015620000905750600081115b620000d2576040517f08c379a0000000000000000000000000000000000000000000000000000000008152600401620000c99062000623565b60405180910390fd5b60005b825181101562000273576000838281518110620000f757620000f662000645565b5b60200260200101519050600073ffffffffffffffffffffffffffffffffffffffff168173ffffffffffffffffffffffffffffffffffffffff16141562000174576040517f08c379a00000000000000000000000000000000000000000000000000000000081526004016200016b90620006c4565b60405180910390fd5b600260008273ffffffffffffffffffffffffffffffffffffffff1673ffffffffffffffffffffffffffffffffffffffff16815260200190815260200160002060009054906101000a900460ff161562000204576040517f08c379a0000000000000000000000000000000000000000000000000000000008152600401620001fb9062000736565b60405180910390fd5b6001600260008373ffffffffffffffffffffffffffffffffffffffff1673ffffffffffffffffffffffffffffffffffffffff16815260200190815260200160002060006101000a81548160ff0219169083151502179055505080806200026a9062000787565b915050620000d5565b5080608081815250507f5ba3c73a5ccc5b8eca108ff5ef67abd33eb8cf186ca541cda421b3827f7f9569338383604051620002b193929190620008c5565b60405180910390a1505062000909565b6000604051905090565b600080fd5b600080fd5b600080fd5b6000601f19601f8301169050919050565b7f4e487b7100000000000000000000000000000000000000000000000000000000600052604160045260246000fd5b6200032582620002da565b810181811067ffffffffffffffff82111715620003475762000346620002eb565b5b80604052505050565b60006200035c620002c1565b90506200036a82826200031a565b919050565b600067ffffffffffffffff8211156200038d576200038c620002eb565b5b602082029050602081019050919050565b600080fd5b600073ffffffffffffffffffffffffffffffffffffffff82169050919050565b6000620003d082620003a3565b9050919050565b620003e281620003c3565b8114620003ee57600080fd5b50565b6000815190506200040281620003d7565b92915050565b60006200041f62000419846200036f565b62000350565b905080838252602082019050602084028301858111156200044557620004446200039e565b5b835b818110156200047257806200045d8882620003f1565b84526020840193505060208101905062000447565b5050509392505050565b600082601f830112620004945762000493620002d5565b5b8151620004a684826020860162000408565b91505092915050565b6000819050919050565b620004c481620004af565b8114620004d057600080fd5b50565b600081519050620004e481620004b9565b92915050565b60008060408385031215620005045762000503620002cb565b5b600083015167ffffffffffffffff811115620005255762000524620002d0565b5b62000533858286016200047c565b92505060206200054685828601620004d3565b9150509250929050565b600082825260208201905092915050565b7f4e6f206f776e6572732070726f76696465640000000000000000000000000000600082015250565b60006200059960128362000550565b9150620005a68262000561565b602082019050919050565b60006020820190508181036000830152620005cc816200058a565b9050919050565b7f496e76616c6964206e756d626572206f6620636f6e6669726d6174696f6e7300600082015250565b60006200060b601f8362000550565b91506200061882620005d3565b602082019050919050565b600060208201905081810360008301526200063e81620005fc565b9050919050565b7f4e487b7100000000000000000000000000000000000000000000000000000000600052603260045260246000fd5b7f5a65726f20616464726573730000000000000000000000000000000000000000600082015250565b6000620006ac600c8362000550565b9150620006b98262000674565b602082019050919050565b60006020820190508181036000830152620006df816200069d565b9050919050565b7f4e6f7420756e69717565206f776e657220616464726573730000000000000000600082015250565b60006200071e60188362000550565b91506200072b82620006e6565b602082019050919050565b6000602082019050818103600083015262000751816200070f565b9050919050565b7f4e487b7100000000000000000000000000000000000000000000000000000000600052601160045260246000fd5b60006200079482620004af565b91507fffffffffffffffffffffffffffffffffffffffffffffffffffffffffffffffff821415620007ca57620007c962000758565b5b600182019050919050565b620007e081620003c3565b82525050565b600081519050919050565b600082825260208201905092915050565b6000819050602082019050919050565b6200081d81620003c3565b82525050565b600062000831838362000812565b60208301905092915050565b6000602082019050919050565b60006200085782620007e6565b620008638185620007f1565b9350620008708362000802565b8060005b83811015620008a75781516200088b888262000823565b975062000898836200083d565b92505060018101905062000874565b5085935050505092915050565b620008bf81620004af565b82525050565b6000606082019050620008dc6000830186620007d5565b8181036020830152620008f081856200084a565b9050620009016040830184620008b4565b949350505050565b608051611412620009256000396000610b8701526114126000f3fe6080604052600436106100595760003560e01c80631e7f8f0f146100a057806320ea8d86146100dd5780632f54bf6e146101065780639ace38c214610143578063c01a8c8414610183578063ee22610b146101ac5761009b565b3661009b577f90890809c654f11d6e72a28fa60149770a0d11ec6c92319d6ceb2bb0a4ea1a1533344760405161009193929190610d77565b60405180910390a1005b600080fd5b3480156100ac57600080fd5b506100c760048036038101906100c29190610e0b565b6101d5565b6040516100d49190610e4b565b60405180910390f35b3480156100e957600080fd5b5061010460048036038101906100ff9190610e66565b6103f9565b005b34801561011257600080fd5b5061012d60048036038101906101289190610e93565b6106c2565b60405161013a9190610edb565b60405180910390f35b34801561014f57600080fd5b5061016a60048036038101906101659190610e66565b6106e2565b60405161017a9493929190610ef6565b60405180910390f35b34801561018f57600080fd5b506101aa60048036038101906101a59190610e66565b61074f565b005b3480156101b857600080fd5b506101d360048036038101906101ce9190610e66565b610a18565b005b6000600260003373ffffffffffffffffffffffffffffffffffffffff1673ffffffffffffffffffffffffffffffffffffffff16815260200190815260200160002060009054906101000a900460ff16610263576040517f08c379a000000000000000000000000000000000000000000000000000000000815260040161025a90610f98565b60405180910390fd5b6000805490509050600060405180608001604052808573ffffffffffffffffffffffffffffffffffffffff1681526020018481526020016001815260200160001515815250908060018154018082558091505060019003906000526020600020906004020160009091909190915060008201518160000160006101000a81548173ffffffffffffffffffffffffffffffffffffffff021916908373ffffffffffffffffffffffffffffffffffffffff160217905550602082015181600101556040820151816002015560608201518160030160006101000a81548160ff0219169083151502179055505050600180600083815260200190815260200160002060003373ffffffffffffffffffffffffffffffffffffffff1673ffffffffffffffffffffffffffffffffffffffff16815260200190815260200160002060006101000a81548160ff0219169083151502179055507f24afe1dadff27405b6a6215469c85ab088c7e86f2ce9489e638c21ab97c0afb4338285856040516103eb9493929190610fb8565b60405180910390a192915050565b600260003373ffffffffffffffffffffffffffffffffffffffff1673ffffffffffffffffffffffffffffffffffffffff16815260200190815260200160002060009054906101000a900460ff16610485576040517f08c379a000000000000000000000000000000000000000000000000000000000815260040161047c90610f98565b60405180910390fd5b8060008054905081106104cd576040517f08c379a00000000000000000000000000000000000000000000000000000000081526004016104c490611049565b60405180910390fd5b81600081815481106104e2576104e1611069565b5b906000526020600020906004020160030160009054906101000a900460ff1615610541576040517f08c379a0000000000000000000000000000000000000000000000000000000008152600401610538906110e4565b60405180910390fd5b6001600084815260200190815260200160002060003373ffffffffffffffffffffffffffffffffffffffff1673ffffffffffffffffffffffffffffffffffffffff16815260200190815260200160002060009054906101000a900460ff166105de576040517f08c379a00000000000000000000000000000000000000000000000000000000081526004016105d590611150565b60405180910390fd5b60006001600085815260200190815260200160002060003373ffffffffffffffffffffffffffffffffffffffff1673ffffffffffffffffffffffffffffffffffffffff16815260200190815260200160002060006101000a81548160ff02191690831515021790555060016000848154811061065d5761065c611069565b5b9060005260206000209060040201600201600082825461067d919061119f565b925050819055507f795394da21278ca39d59bb3ca00efeebdc0679acc420916c7385c2c5d942656f33846040516106b59291906111d3565b60405180910390a1505050565b60026020528060005260406000206000915054906101000a900460ff1681565b600081815481106106f257600080fd5b90600052602060002090600402016000915090508060000160009054906101000a900473ffffffffffffffffffffffffffffffffffffffff16908060010154908060020154908060030160009054906101000a900460ff16905084565b600260003373ffffffffffffffffffffffffffffffffffffffff1673ffffffffffffffffffffffffffffffffffffffff16815260200190815260200160002060009054906101000a900460ff166107db576040517f08c379a00000000000000000000000000000000000000000000000000000000081526004016107d290610f98565b60405180910390fd5b806000805490508110610823576040517f08c379a000000000000000000000000000000000000000000000000000000000815260040161081a90611049565b60405180910390fd5b816000818154811061083857610837611069565b5b906000526020600020906004020160030160009054906101000a900460ff1615610897576040517f08c379a000000000000000000000000000000000000000000000000000000000815260040161088e906110e4565b60405180910390fd5b6001600084815260200190815260200160002060003373ffffffffffffffffffffffffffffffffffffffff1673ffffffffffffffffffffffffffffffffffffffff16815260200190815260200160002060009054906101000a900460ff1615610935576040517f08c379a000000000000000000000000000000000000000000000000000000000815260040161092c90611248565b60405180910390fd5b600180600085815260200190815260200160002060003373ffffffffffffffffffffffffffffffffffffffff1673ffffffffffffffffffffffffffffffffffffffff16815260200190815260200160002060006101000a81548160ff0219169083151502179055506001600084815481106109b3576109b2611069565b5b906000526020600020906004020160020160008282546109d39190611268565b925050819055507f4a504a94899432a9846e1aa406dceb1bcfd538bb839071d49d1e5e23f5be30ef3384604051610a0b9291906111d3565b60405180910390a1505050565b600260003373ffffffffffffffffffffffffffffffffffffffff1673ffffffffffffffffffffffffffffffffffffffff16815260200190815260200160002060009054906101000a900460ff16610aa4576040517f08c379a0000000000000000000000000000000000000000000000000000000008152600401610a9b90610f98565b60405180910390fd5b806000805490508110610aec576040517f08c379a0000000000000000000000000000000000000000000000000000000008152600401610ae390611049565b60405180910390fd5b8160008181548110610b0157610b00611069565b5b906000526020600020906004020160030160009054906101000a900460ff1615610b60576040517f08c379a0000000000000000000000000000000000000000000000000000000008152600401610b57906110e4565b60405180910390fd5b6000808481548110610b7557610b74611069565b5b906000526020600020906004020190507f000000000000000000000000000000000000000000000000000000000000000081600201541015610bec576040517f08c379a0000000000000000000000000000000000000000000000000000000008152600401610be39061130a565b60405180910390fd5b60008160000160009054906101000a900473ffffffffffffffffffffffffffffffffffffffff1673ffffffffffffffffffffffffffffffffffffffff168260010154604051610c3a9061135b565b60006040518083038185875af1925050503d8060008114610c77576040519150601f19603f3d011682016040523d82523d6000602084013e610c7c565b606091505b5050905080610cc0576040517f08c379a0000000000000000000000000000000000000000000000000000000008152600401610cb7906113bc565b60405180910390fd5b60018260030160006101000a81548160ff0219169083151502179055507f4e86ad0da28cbaaaa7e93e36c43b32696e970535225b316f1b84fbf30bdc04e83386604051610d0e9291906111d3565b60405180910390a15050505050565b600073ffffffffffffffffffffffffffffffffffffffff82169050919050565b6000610d4882610d1d565b9050919050565b610d5881610d3d565b82525050565b6000819050919050565b610d7181610d5e565b82525050565b6000606082019050610d8c6000830186610d4f565b610d996020830185610d68565b610da66040830184610d68565b949350505050565b600080fd5b610dbc81610d3d565b8114610dc757600080fd5b50565b600081359050610dd981610db3565b92915050565b610de881610d5e565b8114610df357600080fd5b50565b600081359050610e0581610ddf565b92915050565b60008060408385031215610e2257610e21610dae565b5b6000610e3085828601610dca565b9250506020610e4185828601610df6565b9150509250929050565b6000602082019050610e606000830184610d68565b92915050565b600060208284031215610e7c57610e7b610dae565b5b6000610e8a84828501610df6565b91505092915050565b600060208284031215610ea957610ea8610dae565b5b6000610eb784828501610dca565b91505092915050565b60008115159050919050565b610ed581610ec0565b82525050565b6000602082019050610ef06000830184610ecc565b92915050565b6000608082019050610f0b6000830187610d4f565b610f186020830186610d68565b610f256040830185610d68565b610f326060830184610ecc565b95945050505050565b600082825260208201905092915050565b7f4e6f7420616e204f776e65720000000000000000000000000000000000000000600082015250565b6000610f82600c83610f3b565b9150610f8d82610f4c565b602082019050919050565b60006020820190508181036000830152610fb181610f75565b9050919050565b6000608082019050610fcd6000830187610d4f565b610fda6020830186610d68565b610fe76040830185610d4f565b610ff46060830184610d68565b95945050505050565b7f5472616e73616374696f6e20646f6573206e6f74206578697374730000000000600082015250565b6000611033601b83610f3b565b915061103e82610ffd565b602082019050919050565b6000602082019050818103600083015261106281611026565b9050919050565b7f4e487b7100000000000000000000000000000000000000000000000000000000600052603260045260246000fd5b7f5472616e73616374696f6e20616c726561647920657865637574656400000000600082015250565b60006110ce601c83610f3b565b91506110d982611098565b602082019050919050565b600060208201905081810360008301526110fd816110c1565b9050919050565b7f4e6f7420636f6e6669726d656400000000000000000000000000000000000000600082015250565b600061113a600d83610f3b565b915061114582611104565b602082019050919050565b600060208201905081810360008301526111698161112d565b9050919050565b7f4e487b7100000000000000000000000000000000000000000000000000000000600052601160045260246000fd5b60006111aa82610d5e565b91506111b583610d5e565b9250828210156111c8576111c7611170565b5b828203905092915050565b60006040820190506111e86000830185610d4f565b6111f56020830184610d68565b9392505050565b7f416c726561647920636f6e6669726d6564000000000000000000000000000000600082015250565b6000611232601183610f3b565b915061123d826111fc565b602082019050919050565b6000602082019050818103600083015261126181611225565b9050919050565b600061127382610d5e565b915061127e83610d5e565b9250827fffffffffffffffffffffffffffffffffffffffffffffffffffffffffffffffff038211156112b3576112b2611170565b5b828201905092915050565b7f4e6f7420656e6f75676820636f6e6669726d6174696f6e730000000000000000600082015250565b60006112f4601883610f3b565b91506112ff826112be565b602082019050919050565b60006020820190508181036000830152611323816112e7565b9050919050565b600081905092915050565b50565b600061134560008361132a565b915061135082611335565b600082019050919050565b600061136682611338565b9150819050919050565b7f7478206661696c65640000000000000000000000000000000000000000000000600082015250565b60006113a6600983610f3b565b91506113b182611370565b602082019050919050565b600060208201905081810360008301526113d581611399565b905091905056fea264697066735822122097e927acd2a4e234889a9179c25e86a2b91de7f6e262e2a018fac463876398cd64736f6c634300080b0033a2646970667358221220c4d25701791e987969c75150903b4db0f118d58c48ae2dff619973ecd8438c7064736f6c634300080b0033",
  "immutableReferences": {},
  "source": "// SPDX-License-Identifier: MIT\r\npragma solidity ^0.8.11 <0.9.0;\r\n\r\nimport \"./MultiSigWallet.sol\";\r\n\r\ncontract MultiSigWalletFactory {\r\n\tevent ContractInstantiation(address sender, address wallet);\r\n\r\n\tmapping(address => address[]) public walletInstances;\r\n\tmapping(address => bool) public walletExists;\r\n\r\n\tfunction createWallet(address[] memory _owners, uint _confirmationsRequired) public returns(address wallet){\r\n\t\twallet = address(new MultiSigWallet(_owners, _confirmationsRequired));\r\n\t\twalletInstances[msg.sender].push(wallet);\r\n\t\twalletExists[wallet] = true;\r\n\t\temit ContractInstantiation(msg.sender, wallet);\r\n\t}\r\n}",
  "sourcePath": "E:\\Study\\web\\_SELF_\\react\\multiSigWallet\\contracts\\MultiSigWalletFactory.sol",
  "compiler": {
    "name": "solc",
    "version": "0.8.11+commit.d7f03943.Emscripten.clang"
  },
  "schemaVersion": "3.4.4",
  "updatedAt": "2022-04-09T22:44:20.283Z",
  "devdoc": {
    "kind": "dev",
    "methods": {},
    "version": 1
  },
  "userdoc": {
    "kind": "user",
    "methods": {},
    "version": 1
  }
}