{
  "contractName": "MultiSigWallet",
  "abi": [
    {
      "inputs": [
        {
          "internalType": "address[]",
          "name": "_owners",
          "type": "address[]"
        },
        {
          "internalType": "uint256",
          "name": "_confirmationsRequired",
          "type": "uint256"
        }
      ],
      "stateMutability": "nonpayable",
      "type": "constructor"
    },
    {
      "anonymous": false,
      "inputs": [
        {
          "indexed": false,
          "internalType": "address",
          "name": "sender",
          "type": "address"
        },
        {
          "indexed": false,
          "internalType": "uint256",
          "name": "txIndex",
          "type": "uint256"
        }
      ],
      "name": "Confirmation",
      "type": "event"
    },
    {
      "anonymous": false,
      "inputs": [
        {
          "indexed": false,
          "internalType": "address",
          "name": "sender",
          "type": "address"
        },
        {
          "indexed": false,
          "internalType": "uint256",
          "name": "txIndex",
          "type": "uint256"
        }
      ],
      "name": "ConfirmationRevoked",
      "type": "event"
    },
    {
      "anonymous": false,
      "inputs": [
        {
          "indexed": false,
          "internalType": "address",
          "name": "sender",
          "type": "address"
        },
        {
          "indexed": false,
          "internalType": "uint256",
          "name": "amount",
          "type": "uint256"
        },
        {
          "indexed": false,
          "internalType": "uint256",
          "name": "balance",
          "type": "uint256"
        }
      ],
      "name": "Deposit",
      "type": "event"
    },
    {
      "anonymous": false,
      "inputs": [
        {
          "indexed": false,
          "internalType": "address",
          "name": "sender",
          "type": "address"
        },
        {
          "indexed": false,
          "internalType": "address[]",
          "name": "owners",
          "type": "address[]"
        },
        {
          "indexed": false,
          "internalType": "uint256",
          "name": "confirmationsRequired",
          "type": "uint256"
        }
      ],
      "name": "Initialization",
      "type": "event"
    },
    {
      "anonymous": false,
      "inputs": [
        {
          "indexed": false,
          "internalType": "address",
          "name": "sender",
          "type": "address"
        },
        {
          "indexed": false,
          "internalType": "uint256",
          "name": "txIndex",
          "type": "uint256"
        },
        {
          "indexed": false,
          "internalType": "address",
          "name": "to",
          "type": "address"
        },
        {
          "indexed": false,
          "internalType": "uint256",
          "name": "value",
          "type": "uint256"
        }
      ],
      "name": "TransactionCreated",
      "type": "event"
    },
    {
      "anonymous": false,
      "inputs": [
        {
          "indexed": false,
          "internalType": "address",
          "name": "sender",
          "type": "address"
        },
        {
          "indexed": false,
          "internalType": "uint256",
          "name": "txIndex",
          "type": "uint256"
        }
      ],
      "name": "TransactionExecuted",
      "type": "event"
    },
    {
      "inputs": [
        {
          "internalType": "address",
          "name": "",
          "type": "address"
        }
      ],
      "name": "isOwner",
      "outputs": [
        {
          "internalType": "bool",
          "name": "",
          "type": "bool"
        }
      ],
      "stateMutability": "view",
      "type": "function"
    },
    {
      "inputs": [
        {
          "internalType": "uint256",
          "name": "",
          "type": "uint256"
        }
      ],
      "name": "transactions",
      "outputs": [
        {
          "internalType": "address",
          "name": "to",
          "type": "address"
        },
        {
          "internalType": "uint256",
          "name": "value",
          "type": "uint256"
        },
        {
          "internalType": "uint256",
          "name": "confirmations",
          "type": "uint256"
        },
        {
          "internalType": "bool",
          "name": "executed",
          "type": "bool"
        }
      ],
      "stateMutability": "view",
      "type": "function"
    },
    {
      "stateMutability": "payable",
      "type": "receive"
    },
    {
      "inputs": [
        {
          "internalType": "address",
          "name": "_to",
          "type": "address"
        },
        {
          "internalType": "uint256",
          "name": "_value",
          "type": "uint256"
        }
      ],
      "name": "createTransaction",
      "outputs": [
        {
          "internalType": "uint256",
          "name": "txIndex",
          "type": "uint256"
        }
      ],
      "stateMutability": "nonpayable",
      "type": "function"
    },
    {
      "inputs": [
        {
          "internalType": "uint256",
          "name": "_txIndex",
          "type": "uint256"
        }
      ],
      "name": "confirmTransaction",
      "outputs": [],
      "stateMutability": "nonpayable",
      "type": "function"
    },
    {
      "inputs": [
        {
          "internalType": "uint256",
          "name": "_txIndex",
          "type": "uint256"
        }
      ],
      "name": "revokeConfirmation",
      "outputs": [],
      "stateMutability": "nonpayable",
      "type": "function"
    },
    {
      "inputs": [
        {
          "internalType": "uint256",
          "name": "_txIndex",
          "type": "uint256"
        }
      ],
      "name": "executeTransaction",
      "outputs": [],
      "stateMutability": "nonpayable",
      "type": "function"
    }
  ],
  "bytecode": "0x60a06040523480156200001157600080fd5b5060405162001d3738038062001d378339818101604052810190620000379190620004ea565b60008251116200007e576040517f08c379a00000000000000000000000000000000000000000000000000000000081526004016200007590620005b1565b60405180910390fd5b81518111158015620000905750600081115b620000d2576040517f08c379a0000000000000000000000000000000000000000000000000000000008152600401620000c99062000623565b60405180910390fd5b60005b825181101562000273576000838281518110620000f757620000f662000645565b5b60200260200101519050600073ffffffffffffffffffffffffffffffffffffffff168173ffffffffffffffffffffffffffffffffffffffff16141562000174576040517f08c379a00000000000000000000000000000000000000000000000000000000081526004016200016b90620006c4565b60405180910390fd5b600260008273ffffffffffffffffffffffffffffffffffffffff1673ffffffffffffffffffffffffffffffffffffffff16815260200190815260200160002060009054906101000a900460ff161562000204576040517f08c379a0000000000000000000000000000000000000000000000000000000008152600401620001fb9062000736565b60405180910390fd5b6001600260008373ffffffffffffffffffffffffffffffffffffffff1673ffffffffffffffffffffffffffffffffffffffff16815260200190815260200160002060006101000a81548160ff0219169083151502179055505080806200026a9062000787565b915050620000d5565b5080608081815250507f5ba3c73a5ccc5b8eca108ff5ef67abd33eb8cf186ca541cda421b3827f7f9569338383604051620002b193929190620008c5565b60405180910390a1505062000909565b6000604051905090565b600080fd5b600080fd5b600080fd5b6000601f19601f8301169050919050565b7f4e487b7100000000000000000000000000000000000000000000000000000000600052604160045260246000fd5b6200032582620002da565b810181811067ffffffffffffffff82111715620003475762000346620002eb565b5b80604052505050565b60006200035c620002c1565b90506200036a82826200031a565b919050565b600067ffffffffffffffff8211156200038d576200038c620002eb565b5b602082029050602081019050919050565b600080fd5b600073ffffffffffffffffffffffffffffffffffffffff82169050919050565b6000620003d082620003a3565b9050919050565b620003e281620003c3565b8114620003ee57600080fd5b50565b6000815190506200040281620003d7565b92915050565b60006200041f62000419846200036f565b62000350565b905080838252602082019050602084028301858111156200044557620004446200039e565b5b835b818110156200047257806200045d8882620003f1565b84526020840193505060208101905062000447565b5050509392505050565b600082601f830112620004945762000493620002d5565b5b8151620004a684826020860162000408565b91505092915050565b6000819050919050565b620004c481620004af565b8114620004d057600080fd5b50565b600081519050620004e481620004b9565b92915050565b60008060408385031215620005045762000503620002cb565b5b600083015167ffffffffffffffff811115620005255762000524620002d0565b5b62000533858286016200047c565b92505060206200054685828601620004d3565b9150509250929050565b600082825260208201905092915050565b7f4e6f206f776e6572732070726f76696465640000000000000000000000000000600082015250565b60006200059960128362000550565b9150620005a68262000561565b602082019050919050565b60006020820190508181036000830152620005cc816200058a565b9050919050565b7f496e76616c6964206e756d626572206f6620636f6e6669726d6174696f6e7300600082015250565b60006200060b601f8362000550565b91506200061882620005d3565b602082019050919050565b600060208201905081810360008301526200063e81620005fc565b9050919050565b7f4e487b7100000000000000000000000000000000000000000000000000000000600052603260045260246000fd5b7f5a65726f20616464726573730000000000000000000000000000000000000000600082015250565b6000620006ac600c8362000550565b9150620006b98262000674565b602082019050919050565b60006020820190508181036000830152620006df816200069d565b9050919050565b7f4e6f7420756e69717565206f776e657220616464726573730000000000000000600082015250565b60006200071e60188362000550565b91506200072b82620006e6565b602082019050919050565b6000602082019050818103600083015262000751816200070f565b9050919050565b7f4e487b7100000000000000000000000000000000000000000000000000000000600052601160045260246000fd5b60006200079482620004af565b91507fffffffffffffffffffffffffffffffffffffffffffffffffffffffffffffffff821415620007ca57620007c962000758565b5b600182019050919050565b620007e081620003c3565b82525050565b600081519050919050565b600082825260208201905092915050565b6000819050602082019050919050565b6200081d81620003c3565b82525050565b600062000831838362000812565b60208301905092915050565b6000602082019050919050565b60006200085782620007e6565b620008638185620007f1565b9350620008708362000802565b8060005b83811015620008a75781516200088b888262000823565b975062000898836200083d565b92505060018101905062000874565b5085935050505092915050565b620008bf81620004af565b82525050565b6000606082019050620008dc6000830186620007d5565b8181036020830152620008f081856200084a565b9050620009016040830184620008b4565b949350505050565b608051611412620009256000396000610b8701526114126000f3fe6080604052600436106100595760003560e01c80631e7f8f0f146100a057806320ea8d86146100dd5780632f54bf6e146101065780639ace38c214610143578063c01a8c8414610183578063ee22610b146101ac5761009b565b3661009b577f90890809c654f11d6e72a28fa60149770a0d11ec6c92319d6ceb2bb0a4ea1a1533344760405161009193929190610d77565b60405180910390a1005b600080fd5b3480156100ac57600080fd5b506100c760048036038101906100c29190610e0b565b6101d5565b6040516100d49190610e4b565b60405180910390f35b3480156100e957600080fd5b5061010460048036038101906100ff9190610e66565b6103f9565b005b34801561011257600080fd5b5061012d60048036038101906101289190610e93565b6106c2565b60405161013a9190610edb565b60405180910390f35b34801561014f57600080fd5b5061016a60048036038101906101659190610e66565b6106e2565b60405161017a9493929190610ef6565b60405180910390f35b34801561018f57600080fd5b506101aa60048036038101906101a59190610e66565b61074f565b005b3480156101b857600080fd5b506101d360048036038101906101ce9190610e66565b610a18565b005b6000600260003373ffffffffffffffffffffffffffffffffffffffff1673ffffffffffffffffffffffffffffffffffffffff16815260200190815260200160002060009054906101000a900460ff16610263576040517f08c379a000000000000000000000000000000000000000000000000000000000815260040161025a90610f98565b60405180910390fd5b6000805490509050600060405180608001604052808573ffffffffffffffffffffffffffffffffffffffff1681526020018481526020016001815260200160001515815250908060018154018082558091505060019003906000526020600020906004020160009091909190915060008201518160000160006101000a81548173ffffffffffffffffffffffffffffffffffffffff021916908373ffffffffffffffffffffffffffffffffffffffff160217905550602082015181600101556040820151816002015560608201518160030160006101000a81548160ff0219169083151502179055505050600180600083815260200190815260200160002060003373ffffffffffffffffffffffffffffffffffffffff1673ffffffffffffffffffffffffffffffffffffffff16815260200190815260200160002060006101000a81548160ff0219169083151502179055507f24afe1dadff27405b6a6215469c85ab088c7e86f2ce9489e638c21ab97c0afb4338285856040516103eb9493929190610fb8565b60405180910390a192915050565b600260003373ffffffffffffffffffffffffffffffffffffffff1673ffffffffffffffffffffffffffffffffffffffff16815260200190815260200160002060009054906101000a900460ff16610485576040517f08c379a000000000000000000000000000000000000000000000000000000000815260040161047c90610f98565b60405180910390fd5b8060008054905081106104cd576040517f08c379a00000000000000000000000000000000000000000000000000000000081526004016104c490611049565b60405180910390fd5b81600081815481106104e2576104e1611069565b5b906000526020600020906004020160030160009054906101000a900460ff1615610541576040517f08c379a0000000000000000000000000000000000000000000000000000000008152600401610538906110e4565b60405180910390fd5b6001600084815260200190815260200160002060003373ffffffffffffffffffffffffffffffffffffffff1673ffffffffffffffffffffffffffffffffffffffff16815260200190815260200160002060009054906101000a900460ff166105de576040517f08c379a00000000000000000000000000000000000000000000000000000000081526004016105d590611150565b60405180910390fd5b60006001600085815260200190815260200160002060003373ffffffffffffffffffffffffffffffffffffffff1673ffffffffffffffffffffffffffffffffffffffff16815260200190815260200160002060006101000a81548160ff02191690831515021790555060016000848154811061065d5761065c611069565b5b9060005260206000209060040201600201600082825461067d919061119f565b925050819055507f795394da21278ca39d59bb3ca00efeebdc0679acc420916c7385c2c5d942656f33846040516106b59291906111d3565b60405180910390a1505050565b60026020528060005260406000206000915054906101000a900460ff1681565b600081815481106106f257600080fd5b90600052602060002090600402016000915090508060000160009054906101000a900473ffffffffffffffffffffffffffffffffffffffff16908060010154908060020154908060030160009054906101000a900460ff16905084565b600260003373ffffffffffffffffffffffffffffffffffffffff1673ffffffffffffffffffffffffffffffffffffffff16815260200190815260200160002060009054906101000a900460ff166107db576040517f08c379a00000000000000000000000000000000000000000000000000000000081526004016107d290610f98565b60405180910390fd5b806000805490508110610823576040517f08c379a000000000000000000000000000000000000000000000000000000000815260040161081a90611049565b60405180910390fd5b816000818154811061083857610837611069565b5b906000526020600020906004020160030160009054906101000a900460ff1615610897576040517f08c379a000000000000000000000000000000000000000000000000000000000815260040161088e906110e4565b60405180910390fd5b6001600084815260200190815260200160002060003373ffffffffffffffffffffffffffffffffffffffff1673ffffffffffffffffffffffffffffffffffffffff16815260200190815260200160002060009054906101000a900460ff1615610935576040517f08c379a000000000000000000000000000000000000000000000000000000000815260040161092c90611248565b60405180910390fd5b600180600085815260200190815260200160002060003373ffffffffffffffffffffffffffffffffffffffff1673ffffffffffffffffffffffffffffffffffffffff16815260200190815260200160002060006101000a81548160ff0219169083151502179055506001600084815481106109b3576109b2611069565b5b906000526020600020906004020160020160008282546109d39190611268565b925050819055507f4a504a94899432a9846e1aa406dceb1bcfd538bb839071d49d1e5e23f5be30ef3384604051610a0b9291906111d3565b60405180910390a1505050565b600260003373ffffffffffffffffffffffffffffffffffffffff1673ffffffffffffffffffffffffffffffffffffffff16815260200190815260200160002060009054906101000a900460ff16610aa4576040517f08c379a0000000000000000000000000000000000000000000000000000000008152600401610a9b90610f98565b60405180910390fd5b806000805490508110610aec576040517f08c379a0000000000000000000000000000000000000000000000000000000008152600401610ae390611049565b60405180910390fd5b8160008181548110610b0157610b00611069565b5b906000526020600020906004020160030160009054906101000a900460ff1615610b60576040517f08c379a0000000000000000000000000000000000000000000000000000000008152600401610b57906110e4565b60405180910390fd5b6000808481548110610b7557610b74611069565b5b906000526020600020906004020190507f000000000000000000000000000000000000000000000000000000000000000081600201541015610bec576040517f08c379a0000000000000000000000000000000000000000000000000000000008152600401610be39061130a565b60405180910390fd5b60008160000160009054906101000a900473ffffffffffffffffffffffffffffffffffffffff1673ffffffffffffffffffffffffffffffffffffffff168260010154604051610c3a9061135b565b60006040518083038185875af1925050503d8060008114610c77576040519150601f19603f3d011682016040523d82523d6000602084013e610c7c565b606091505b5050905080610cc0576040517f08c379a0000000000000000000000000000000000000000000000000000000008152600401610cb7906113bc565b60405180910390fd5b60018260030160006101000a81548160ff0219169083151502179055507f4e86ad0da28cbaaaa7e93e36c43b32696e970535225b316f1b84fbf30bdc04e83386604051610d0e9291906111d3565b60405180910390a15050505050565b600073ffffffffffffffffffffffffffffffffffffffff82169050919050565b6000610d4882610d1d565b9050919050565b610d5881610d3d565b82525050565b6000819050919050565b610d7181610d5e565b82525050565b6000606082019050610d8c6000830186610d4f565b610d996020830185610d68565b610da66040830184610d68565b949350505050565b600080fd5b610dbc81610d3d565b8114610dc757600080fd5b50565b600081359050610dd981610db3565b92915050565b610de881610d5e565b8114610df357600080fd5b50565b600081359050610e0581610ddf565b92915050565b60008060408385031215610e2257610e21610dae565b5b6000610e3085828601610dca565b9250506020610e4185828601610df6565b9150509250929050565b6000602082019050610e606000830184610d68565b92915050565b600060208284031215610e7c57610e7b610dae565b5b6000610e8a84828501610df6565b91505092915050565b600060208284031215610ea957610ea8610dae565b5b6000610eb784828501610dca565b91505092915050565b60008115159050919050565b610ed581610ec0565b82525050565b6000602082019050610ef06000830184610ecc565b92915050565b6000608082019050610f0b6000830187610d4f565b610f186020830186610d68565b610f256040830185610d68565b610f326060830184610ecc565b95945050505050565b600082825260208201905092915050565b7f4e6f7420616e204f776e65720000000000000000000000000000000000000000600082015250565b6000610f82600c83610f3b565b9150610f8d82610f4c565b602082019050919050565b60006020820190508181036000830152610fb181610f75565b9050919050565b6000608082019050610fcd6000830187610d4f565b610fda6020830186610d68565b610fe76040830185610d4f565b610ff46060830184610d68565b95945050505050565b7f5472616e73616374696f6e20646f6573206e6f74206578697374730000000000600082015250565b6000611033601b83610f3b565b915061103e82610ffd565b602082019050919050565b6000602082019050818103600083015261106281611026565b9050919050565b7f4e487b7100000000000000000000000000000000000000000000000000000000600052603260045260246000fd5b7f5472616e73616374696f6e20616c726561647920657865637574656400000000600082015250565b60006110ce601c83610f3b565b91506110d982611098565b602082019050919050565b600060208201905081810360008301526110fd816110c1565b9050919050565b7f4e6f7420636f6e6669726d656400000000000000000000000000000000000000600082015250565b600061113a600d83610f3b565b915061114582611104565b602082019050919050565b600060208201905081810360008301526111698161112d565b9050919050565b7f4e487b7100000000000000000000000000000000000000000000000000000000600052601160045260246000fd5b60006111aa82610d5e565b91506111b583610d5e565b9250828210156111c8576111c7611170565b5b828203905092915050565b60006040820190506111e86000830185610d4f565b6111f56020830184610d68565b9392505050565b7f416c726561647920636f6e6669726d6564000000000000000000000000000000600082015250565b6000611232601183610f3b565b915061123d826111fc565b602082019050919050565b6000602082019050818103600083015261126181611225565b9050919050565b600061127382610d5e565b915061127e83610d5e565b9250827fffffffffffffffffffffffffffffffffffffffffffffffffffffffffffffffff038211156112b3576112b2611170565b5b828201905092915050565b7f4e6f7420656e6f75676820636f6e6669726d6174696f6e730000000000000000600082015250565b60006112f4601883610f3b565b91506112ff826112be565b602082019050919050565b60006020820190508181036000830152611323816112e7565b9050919050565b600081905092915050565b50565b600061134560008361132a565b915061135082611335565b600082019050919050565b600061136682611338565b9150819050919050565b7f7478206661696c65640000000000000000000000000000000000000000000000600082015250565b60006113a6600983610f3b565b91506113b182611370565b602082019050919050565b600060208201905081810360008301526113d581611399565b905091905056fea264697066735822122097e927acd2a4e234889a9179c25e86a2b91de7f6e262e2a018fac463876398cd64736f6c634300080b0033",
  "immutableReferences": {
    "104": [
      {
        "length": 32,
        "start": 2951
      }
    ]
  },
  "source": "// SPDX-License-Identifier: MIT\r\npragma solidity ^0.8.4 <0.9.0;\r\n\r\ncontract MultiSigWallet {\r\n  event Deposit(address sender, uint amount, uint balance);\r\n  event Initialization(address sender, address[] owners, uint confirmationsRequired);\r\n  event TransactionCreated(address sender, uint txIndex, address to, uint value);\r\n  event Confirmation(address sender, uint txIndex);\r\n  event ConfirmationRevoked(address sender, uint txIndex);\r\n  event TransactionExecuted(address sender, uint txIndex);\r\n\r\n  struct Transaction{\r\n    address to;\r\n    uint value;\r\n    uint confirmations;\r\n    bool executed;\r\n  }\r\n\r\n  Transaction[] public transactions;\r\n  mapping(uint => mapping(address => bool)) isConfirmed;\r\n  mapping(address => bool) public isOwner;\r\n  uint immutable confirmationsRequired;\r\n\r\n  constructor(address[] memory _owners, uint _confirmationsRequired) {\r\n    require(_owners.length > 0, \"No owners provided\");\r\n    require(_confirmationsRequired <= _owners.length && _confirmationsRequired > 0, \"Invalid number of confirmations\");\r\n    for(uint i = 0; i < _owners.length; i++){\r\n        address owner = _owners[i];\r\n        require(owner != address(0), \"Zero address\");\r\n        require(!isOwner[owner], \"Not unique owner address\");\r\n        isOwner[owner] = true;\r\n    }\r\n    confirmationsRequired = _confirmationsRequired;\r\n    emit Initialization(msg.sender, _owners, _confirmationsRequired);\r\n  }\r\n\r\n  modifier onlyOwner(){\r\n    require(isOwner[msg.sender], \"Not an Owner\");\r\n    _;\r\n  }\r\n\r\n  modifier txExists(uint _txIndex){\r\n    require(_txIndex < transactions.length, \"Transaction does not exists\");\r\n    _;\r\n  }\r\n\r\n  modifier txNotExecuted(uint _txIndex){\r\n    require(!transactions[_txIndex].executed, \"Transaction already executed\");\r\n    _;\r\n  }\r\n\r\n  function createTransaction(address _to, uint _value) external onlyOwner returns(uint txIndex){\r\n    txIndex = transactions.length;\r\n    transactions.push(Transaction(_to, _value, 1, false));\r\n    isConfirmed[txIndex][msg.sender] = true;\r\n    emit TransactionCreated(msg.sender, txIndex, _to, _value);\r\n  }\r\n\r\n  function confirmTransaction(uint _txIndex) external onlyOwner txExists(_txIndex) txNotExecuted(_txIndex) {\r\n    require(!isConfirmed[_txIndex][msg.sender], \"Already confirmed\");\r\n    isConfirmed[_txIndex][msg.sender] = true;\r\n    transactions[_txIndex].confirmations += 1;\r\n    emit Confirmation(msg.sender, _txIndex);\r\n  }\r\n\r\n  function revokeConfirmation(uint _txIndex) external onlyOwner txExists(_txIndex) txNotExecuted(_txIndex) {\r\n    require(isConfirmed[_txIndex][msg.sender], \"Not confirmed\");\r\n    isConfirmed[_txIndex][msg.sender] = false;\r\n    transactions[_txIndex].confirmations -= 1;\r\n    emit ConfirmationRevoked(msg.sender, _txIndex);\r\n  }\r\n\r\n  function executeTransaction(uint _txIndex) external onlyOwner txExists(_txIndex) txNotExecuted(_txIndex) {\r\n    Transaction storage transaction = transactions[_txIndex];\r\n    require(transaction.confirmations >= confirmationsRequired, \"Not enough confirmations\");\r\n    (bool success, ) = transaction.to.call{value: transaction.value}(\"\");\r\n    require(success, \"tx failed\");\r\n    transaction.executed = true;\r\n    emit TransactionExecuted(msg.sender, _txIndex);\r\n  }\r\n\r\n  receive() external payable {\r\n    emit Deposit(msg.sender, msg.value, address(this).balance);\r\n  }\r\n\r\n}",
  "sourcePath": "E:\\Study\\web\\_SELF_\\react\\multiSigWallet\\contracts\\MultiSigWallet.sol",
  "compiler": {
    "name": "solc",
    "version": "0.8.11+commit.d7f03943.Emscripten.clang"
  },
  "schemaVersion": "3.4.4",
  "updatedAt": "2022-04-09T22:44:19.994Z",
  "devdoc": {
    "kind": "dev",
    "methods": {},
    "version": 1
  },
  "userdoc": {
    "kind": "user",
    "methods": {},
    "version": 1
  }
}